:020000040800F2
:1000000000500020290C0008590B0008610B000863
:10001000690B0008710B0008790B00080000000054
:10002000000000000000000000000000810B00083C
:100030008D0B000800000000990B0008A50B0008BC
:10004000710C0008710C0008710C0008710C00089C
:10005000710C0008710C0008710C0008710C00088C
:10006000710C0008710C0008710C0008710C00087C
:10007000710C0008710C0008710C0008710C00086C
:10008000710C0008710C0008710C0008710C00085C
:10009000710C0008710C0008710C0008710C00084C
:1000A000710C0008710C0008710C0008710C00083C
:1000B000710C0008710C0008710C0008710C00082C
:1000C000710C0008710C0008710C0008710C00081C
:1000D000710C0008710C0008710C0008710C00080C
:1000E000710C0008710C0008710C00080000000081
:1000F0000000000000000000000000000000000000
:0C01000000000000000000005FF808F1A3
:10010C0010B5054C237833B9044B13B10448AFF345
:10011C0000800123237010BD5C0000200000000053
:10012C006834000808B5034B1BB103490348AFF30F
:10013C00008008BD0000000060000020683400084A
:10014C0080B485B000AFF860084611461A460346E5
:10015C007B810B463B811346FB80134AFB68136083
:10016C00124A7B891380124A3B891380114AFB88FF
:10017C001380104A3B8B53800E4ABB8B93800D4AE5
:10018C003B8CD3800B4ABB8C13810A4A3B8D538129
:10019C00084ABB8D9381074A3B8ED38100BF14372D
:1001AC00BD4680BC704700BF780000207C0000205A
:1001BC007E0000208000002080B500AF0A4B1B6839
:1001CC000A4A11880122184601F053F8012000F068
:1001DC00ADFD054B1B68054A11880022184601F03D
:1001EC0048F800BF80BD00BF780000207E000020D2
:1001FC0080B584B000AF0346FB710023FB601FE0A9
:10020C00FA79FB6842FA03F303F00103002B0AD0DE
:10021C00104B1868104AFB6832F81330012219464B
:10022C0001F027F809E00B4B18680B4AFB6832F811
:10023C0013300022194601F01CF8FB680133FB60F7
:10024C00FB68072BDCDDFFF7B7FF00BF1037BD469F
:10025C0080BD00BF780000208000002080B582B0F7
:10026C0000AF0346FB71084B1B68084A118800223B
:10027C00184600F0FEFFFB791846FFF7B9FF00BFE8
:10028C000837BD4680BD00BF780000207C000020F0
:10029C0080B500AF3020FFF7E1FF0A2000F046FDEB
:1002AC003020FFF7DBFF0A2000F040FD3020FFF785
:1002BC00D5FF0A2000F03AFD3820FFF7CFFF0A20C7
:1002CC0000F034FD0E20FFF7C9FF0A2000F02EFDD0
:1002DC0000BF80BD80B582B000AF0346FB71084BF8
:1002EC001B68084A11880122184600F0C2FFFB79EE
:1002FC001846FFF77DFF00BF0837BD4680BD00BF25
:10030C00780000207C00002080B582B000AF7860BF
:10031C0006E07B685A1C7A601B781846FFF7DAFFF8
:10032C007B681B78002BF4D100BF00BF0837BD469B
:10033C0080BD000080B582B000AF03460A46FB7159
:10034C001346BB711A4B1B681A4A118800221846B7
:10035C0000F08FFFFB79032B26D801A252F823F073
:10036C007D0300088B03000899030008A70300080D
:10037C00BB79803BDBB21846FFF73AFF14E0BB7940
:10038C00403BDBB21846FFF733FF0DE0BB796C3B0B
:10039C00DBB21846FFF72CFF06E0BB792C3BDBB237
:1003AC001846FFF725FF00BF00BF0837BD4680BDCC
:1003BC00780000207C00002080B584B002AF0022C1
:1003CC002A492B4801F006FE00222A49284801F050
:1003DC008FFF264B1B787B6000210020FFF7AAFFC4
:1003EC00254B1B68002B0CD1204B5B781A461F4BFE
:1003FC009B78009313467A682049214802F07EFBD3
:10040C002DE0204A3B461268114619800233120C2B
:10041C001A707B680B2B0EDD7B680C2B02DD7B6866
:10042C000C3B7B60184A3B4612681146198002331C
:10043C00120C1A7004E07B68002B01D10C237B603A
:10044C000A4B5B781946094B9B781A463B4601933D
:10045C0000920B467A680D49094802F04FFB084898
:10046C00FFF752FF00BF0837BD4680BDA400002037
:10047C0090000020B0000020D40000208034000840
:10048C00B4000020A834000890340008943400080C
:10049C0080B584B002AF484B1B68002B00F08880FD
:1004AC00002300224549464802F010F800210020A4
:1004BC00FFF740FF434B1B787B6000210020FFF7C8
:1004CC0039FF414B1B68002B0CD13E4B5B781A4615
:1004DC003C4B9B78009313467A683C493C4802F0AD
:1004EC000DFB2DE03B4A3B46126811461980023346
:1004FC00120C1A707B680B2B0EDD7B680C2B02DD4B
:10050C007B680C3B7B60344A3B4612681146198071
:10051C000233120C1A7004E07B68002B01D10C23FF
:10052C007B60284B5B781946264B9B781A463B46DA
:10053C00019300920B467A682849254802F0DEFAAE
:10054C002348FFF7E1FE00210120FFF7F3FE1B4BD0
:10055C001B781A46194B5B781946184B9B780093FD
:10056C000B461A491E4802F0C9FA1D48FFF7CCFE8B
:10057C00144B1A78114B1B789A4219D1114B5A789B
:10058C000E4B5B789A4213D10E4B9A780B4B9B789F
:10059C009A420DD101220221124800F06AFE4FF45A
:1005AC00FA6000F0C3FB002202210E4800F061FE4D
:1005BC0000BF0837BD4680BDD8000020A800002031
:1005CC0090000020A4000020D400002080340008FB
:1005DC00B4000020A83400089034000894340008BB
:1005EC00C4000020000C014080B582B000AF042193
:1005FC001A4800F027FE03467B604FF480611748D1
:10060C0000F020FE03463B607B68012B0CD1144BA1
:10061C001B68002B08D1134B1B6883F00103114A94
:10062C001360C82000F082FB0D4A7B6813603B68A6
:10063C00012B0CD10C4B1B68002B08D10B4B1B68EE
:10064C0083F00103094A1360C82000F06FFB064ACF
:10065C003B68136000BF0837BD4680BD000C0140ED
:10066C00E4000020D4000020E8000020D800002086
:10067C0080B500AF4FF400511E4800F0E3FD034677
:10068C00012B15D1C82000F051FB1B4B1B68002B14
:10069C000CBF01230023DBB21A46174B1A6000BFB4
:1006AC004FF40051134800F0CDFD0346012BF7D059
:1006BC004FF480510F4800F0C5FD0346012B17D1B4
:1006CC00C82000F033FB0D4B00221A700B4B00229C
:1006DC005A700A4B00229A70074B00221A6000BF16
:1006EC004FF48051034800F0ADFD0346012BF7D0C9
:1006FC0000BF80BD000C0140E0000020DC000020A9
:10070C0080B582B002AF00210220FFF713FE0A4B26
:10071C001B781A46084B5B781946074B9B7800935D
:10072C000B460649064802F0E9F90548FFF7ECFDCF
:10073C0000BFBD4680BD00BFDC000020AC3400080B
:10074C00B400002080B588B008AF00F08DFA00F03E
:10075C0055F800F00BF900F0A5F880230693402320
:10076C00059320230493102303930823029304235B
:10077C0001930223009301234FF400724FF4807114
:10078C001B48FFF7DDFCFFF783FDFFF72DFFFFF79D
:10079C0013FEFFF77DFEFFF76BFF164B1B68002B5C
:1007AC0023D04FF47A7000F0C1FA134B9B780133CD
:1007BC00DAB2114B9A70104B9B783B2B15D90E4B20
:1007CC0000229A700C4B5B780133DAB20A4B5A70E8
:1007DC00094B5B783B2B08D9074B00225A70064B10
:1007EC001B780133DAB2044B1A70FFF789FFCCE7A0
:1007FC0000080140E0000020DC00002080B594B02F
:10080C0000AF07F1280328220021184602F096F9C0
:10081C0007F1140300221A605A609A60DA601A61B8
:10082C003B1D00221A605A609A60DA600A23BB6290
:10083C000123BB631023FB6301233B6400237B6414
:10084C0007F12803184600F039FD0346002B01D0B0
:10085C0000F020F90F237B610023BB610023FB61B7
:10086C0000233B6200237B6207F11403002118462E
:10087C0000F0A6FF0346002B01D000F00BF901237A
:10088C007B604FF40073BB603B1D184601F012F9FE
:10089C000346002B01D000F0FDF800BF5037BD46D9
:1008AC0080BD000080B584B000AF07F10C030021BF
:1008BC000A461A800A469A700023BB603B46002207
:1008CC001A605A60274B284A1A60264B4FF0FF32A9
:1008DC005A60244B4FF480729A60224801F056FA09
:1008EC000346002B01D000F0D5F814233B731523DD
:1008FC007B731023BB7307F10C03012219461948B3
:10090C0001F0D0FA0346002B01D000F0C3F801230C
:10091C003B7201237B722923BB722523FB7207F1E7
:10092C000803012219460F4801F02CFC0346002B4A
:10093C0001D000F0AFF814233B7017237B70002319
:10094C00BB7000237B603B4601221946054801F031
:10095C0023FD0346002B01D000F09CF800BF10379C
:10096C00BD4680BD900000200028004080B588B0B6
:10097C0000AF07F1100300221A605A609A60DA6027
:10098C00414B9B69404A43F0100393613E4B9B697A
:10099C0003F01003FB60FB683B4B9B693A4A43F046
:1009AC0020039361384B9B6903F02003BB60BB6849
:1009BC00354B9B69344A43F004039361324B9B697A
:1009CC0003F004037B607B682F4B9B692E4A43F03A
:1009DC00080393612C4B9B6903F008033B603B6855
:1009EC00002240F2FF31294800F043FC0022022192
:1009FC00274800F03EFC40F2FF333B6101237B6152
:100A0C000023BB610223FB6107F1100319461F4849
:100A1C0000F094FA02233B6101237B610023BB614C
:100A2C000223FB6107F110031946194800F086FAFE
:100A3C0043F204433B6100237B610223BB6107F15A
:100A4C0010031946124800F079FA4FF400633B6129
:100A5C0000237B610023BB6107F1100319460C488E
:100A6C0000F06CFA4FF400633B6100237B610023C0
:100A7C00BB6107F110031946044800F05FFA00BF90
:100A8C002037BD4680BD00BF001002400008014069
:100A9C00000C014080B400AF72B600BF00BFFDE790
:100AAC0080B485B000AF154B9B69144A43F0010329
:100ABC009361124B9B6903F00103BB60BB680F4B46
:100ACC00DB690E4A43F08053D3610C4BDB6903F0B6
:100ADC0080537B607B680A4B5B68FB60FB6823F090
:100AEC00E063FB60FB6843F08063FB60044AFB68D7
:100AFC00536000BF1437BD4680BC704700100240E5
:100B0C000000014080B584B000AF78607B681B6842
:100B1C000B4A934210D100F0C5FB0A4BDB69094A22
:100B2C0043F00063D361074BDB6903F00063FB60A8
:100B3C00FB68054B01221A6000BF1037BD4680BD13
:100B4C0000280040001002403C04424280B400AF38
:100B5C0000BFFDE780B400AF00BFFDE780B400AF7D
:100B6C0000BFFDE780B400AF00BFFDE780B400AF6D
:100B7C0000BFFDE780B400AF00BFBD4680BC70472E
:100B8C0080B400AF00BFBD4680BC704780B400AFDE
:100B9C0000BFBD4680BC704780B500AF00F0AAF81E
:100BAC0000BF80BD80B586B000AF7860144A154B8D
:100BBC00D31A7B617B693B61134B1B68002B02D101
:100BCC00114B124A1A60104B1A687B6813443A692D
:100BDC009A4207D201F0BAFF03460C221A604FF07A
:100BEC00FF3309E0084B1B68FB60074B1A687B68F6
:100BFC001344054A1360FB6818461837BD4680BD80
:100C0C000050002000040000EC00002040020020F6
:100C1C0080B400AF00BFBD4680BC7047FFF7F8FF43
:100C2C000B480C490C4A002302E0D458C45004333E
:100C3C00C4188C42F9D3094A094C002301E0136013
:100C4C000432A242FBD301F087FFFFF77BFD704714
:100C5C00000000205C0000203C3500085C000020F7
:100C6C003C020020FEE7000080B500AF084B1B687B
:100C7C00074A43F010031360032000F02BF90F20F8
:100C8C0000F008F8FFF70CFF0023184680BD00BFEA
:100C9C000020024080B582B000AF7860124B1A6819
:100CAC00124B1B7819464FF47A73B3FBF1F3B2FB7A
:100CBC00F3F3184600F035F90346002B01D001235D
:100CCC000EE07B680F2B0AD8002279684FF0FF30BA
:100CDC0000F00BF9064A7B681360002300E0012347
:100CEC0018460837BD4680BD0000002008000020D3
:100CFC000400002080B400AF054B1B781A46054B4E
:100D0C001B681344034A136000BFBD4680BC704788
:100D1C0008000020F000002080B400AF024B1B68DC
:100D2C001846BD4680BC7047F000002080B584B0EA
:100D3C0000AF7860FFF7F0FFB8607B68FB60FB6882
:100D4C00B3F1FF3F05D00A4B1B781A46FB681344DE
:100D5C00FB6000BFFFF7E0FF0246BB68D31AFA68DE
:100D6C009A42F7D800BF00BF1037BD4680BD00BF08
:100D7C000800002080B485B000AF78607B6803F079
:100D8C000703FB600C4BDB68BB60BA684FF6FF03D4
:100D9C001340BB60FB681A02BB68134343F0BF638C
:100DAC0043F40033BB60044ABB68D36000BF143704
:100DBC00BD4680BC704700BF00ED00E080B400AFC2
:100DCC00044BDB681B0A03F007031846BD4680BCC6
:100DDC00704700BF00ED00E080B483B000AF034665
:100DEC003960FB7197F90730002B0ADB3B68DAB2EC
:100DFC000C4997F907301201D2B20B4483F8002347
:100E0C000AE03B68DAB20849FB7903F00F03043BB4
:100E1C001201D2B20B441A7600BF0C37BD4680BC0F
:100E2C00704700BF00E100E000ED00E080B489B045
:100E3C0000AFF860B9607A60FB6803F00703FB61F0
:100E4C00FB69C3F10703042B28BF0423BB61FB69B7
:100E5C000433062B02D9FB69033B00E000237B61C2
:100E6C004FF0FF32BB6902FA03F3DA43BB681A4056
:100E7C007B699A404FF0FF317B6901FA03F3D94348
:100E8C007B680B40134318462437BD4680BC704723
:100E9C0080B582B000AF78607B68013BB3F1807F96
:100EAC0001D301230FE00A4A7B68013B53600F21F9
:100EBC004FF0FF30FFF790FF054B00229A60044B78
:100ECC0007221A60002318460837BD4680BD00BFB4
:100EDC0010E000E080B582B000AF78607868FFF772
:100EEC0049FF00BF0837BD4680BD80B586B000AF56
:100EFC000346B9607A60FB7300237B61FFF75EFFEA
:100F0C0078617A68B9687869FFF790FF024697F9BB
:100F1C000F3011461846FFF75FFF00BF1837BD466C
:100F2C0080BD80B582B000AF78607868FFF7B0FF05
:100F3C00034618460837BD4680BD000080B48BB010
:100F4C0000AF7860396000237B6200233B6269E16B
:100F5C0001227B6A02FA03F3FB613B681B68FA69A6
:100F6C001340BB61BA69FB699A4240F058813B68F7
:100F7C005B689A4A93425ED0984A934275D8984AD5
:100F8C00934258D0964A93426FD8964A934252D085
:100F9C00944A934269D8944A93424CD0924A9342D1
:100FAC0063D8924A934246D0904A93425DD8122B12
:100FBC002AD8122B59D801A252F823F0431000085A
:100FCC001D1000082F100008711000087710000881
:100FDC0077100008771000087710000877100008C9
:100FEC0077100008771000087710000877100008B9
:100FFC0077100008771000087710000877100008A9
:10100C002510000839100008794A934213D02CE0BF
:10101C003B68DB683B6229E03B68DB6804333B627E
:10102C0024E03B68DB6808333B621FE03B68DB680D
:10103C000C333B621AE03B689B68002B02D1042303
:10104C003B6213E03B689B68012B05D108233B6294
:10105C007B68FA691A6109E008233B627B68FA69CC
:10106C005A6103E000233B6200E000BFBB69FF2B29
:10107C0001D87B6801E07B6804337B61BB69FF2B83
:10108C0002D87B6A9B0002E07B6A083B9B003B61B9
:10109C007B691A680F213B6901FA03F3DB431A40A1
:1010AC00396A3B6901FA03F31A437B691A603B689E
:1010BC005B6803F08053002B00F0B1804D4B9B69B3
:1010CC004C4A43F0010393614A4B9B6903F00103C3
:1010DC00BB60BB68484A7B6A9B08023352F82330DA
:1010EC00FB607B6A03F003039B000F2202FA03F3FD
:1010FC00DB43FA681340FB607B68404A934213D091
:10110C007B683F4A93420DD07B683E4A934207D09E
:10111C007B683D4A934201D1032306E0042304E09B
:10112C00022302E0012300E000237A6A02F00302AA
:10113C0092009340FA681343FB602F497B6A9B082B
:10114C000233FA6841F823203B685B6803F4801390
:10115C00002B06D02D4B9A682C49BB6913438B602E
:10116C0006E02A4B9A68BB69DB43284913408B6025
:10117C003B685B6803F40013002B06D0234BDA6842
:10118C002249BB691343CB6006E0204BDA68BB698C
:10119C00DB431E491340CB603B685B6803F40033B0
:1011AC00002B06D0194B5A681849BB6913434B6086
:1011BC0006E0164B5A68BB69DB43144913404B607D
:1011CC003B685B6803F48033002B21D00F4B1A680B
:1011DC000E49BB6913430B6021E000BF00003210C5
:1011EC00000031100000221000002110000012102D
:1011FC0000001110001002400000014000080140E6
:10120C00000C01400010014000140140000401409A
:10121C000B4B1A68BB69DB43094913400B607B6AB3
:10122C0001337B623B681A687B6A22FA03F3002B5A
:10123C007FF48EAE00BF00BF2C37BD4680BC70471C
:10124C000004014080B485B000AF78600B467B8011
:10125C007B689A687B881340002B02D00123FB73B8
:10126C0001E00023FB73FB7B18461437BD4680BCA2
:10127C00704780B483B000AF78600B467B80134618
:10128C007B707B78002B03D07A887B681A6103E033
:10129C007B881A047B681A6100BF0C37BD4680BC82
:1012AC007047000080B400AF034B01221A6000BFEE
:1012BC00BD4680BC704700BF20000E4280B586B092
:1012CC0000AF78607B68002B01D1012372E27B6850
:1012DC001B6803F00103002B00F08780924B5B68C6
:1012EC0003F00C03042B0CD08F4B5B6803F00C0346
:1012FC00082B12D18C4B5B6803F48033B3F5803F21
:10130C000BD1894B1B6803F40033002B6CD07B682A
:10131C005B68002B68D101234CE27B685B68B3F5FA
:10132C00803F06D1804B1B687F4A43F480331360A7
:10133C002EE07B685B68002B0CD17B4B1B687A4AD8
:10134C0023F480331360784B1B68774A23F4802393
:10135C0013601DE07B685B68B3F5A02F0CD1724B5A
:10136C001B68714A43F4802313606F4B1B686E4AF1
:10137C0043F4803313600BE06B4B1B686A4A23F415
:10138C0080331360684B1B68674A23F48023136017
:10139C007B685B68002B13D0FFF7BEFC386108E05C
:1013AC00FFF7BAFC02463B69D31A642B01D903231D
:1013BC0000E25D4B1B6803F40033002BF0D014E00B
:1013CC00FFF7AAFC386108E0FFF7A6FC02463B6970
:1013DC00D31A642B01D90323ECE1534B1B6803F4A0
:1013EC000033002BF0D100E000BF7B681B6803F0DA
:1013FC000203002B63D04C4B5B6803F00C03002BF7
:10140C000BD0494B5B6803F00C03082B1CD1464BEB
:10141C005B6803F48033002B16D1434B1B6803F03D
:10142C000203002B05D07B681B69012B01D0012323
:10143C00C0E13D4B1B6823F0F8027B685B69DB0065
:10144C00394913430B603AE07B681B69002B20D0B1
:10145C00364B01221A60FFF75FFC386108E0FFF79A
:10146C005BFC02463B69D31A022B01D90323A1E191
:10147C002D4B1B6803F00203002BF0D02A4B1B688A
:10148C0023F0F8027B685B69DB00274913430B6090
:10149C0015E0264B00221A60FFF73EFC386108E08D
:1014AC00FFF73AFC02463B69D31A022B01D90323FE
:1014BC0080E11D4B1B6803F00203002BF0D17B680D
:1014CC001B6803F00803002B3AD07B689B69002B48
:1014DC0019D0174B01221A60FFF71EFC386108E087
:1014EC00FFF71AFC02463B69D31A022B01D90323DE
:1014FC0060E10D4B5B6A03F00203002BF0D001207E
:10150C0000F0BAFA1CE00A4B00221A60FFF704FC48
:10151C0038610FE0FFF700FC02463B69D31A022B3F
:10152C0008D9032346E100BF0010024000004242EC
:10153C0080044242924B5B6A03F00203002BE9D118
:10154C007B681B6803F00403002B00F0A6800023CB
:10155C00FB758B4BDB6903F08053002B0DD1884B53
:10156C00DB69874A43F08053D361854BDB6903F019
:10157C008053BB60BB680123FB75824B1B6803F473
:10158C008073002B18D17F4B1B687E4A43F4807309
:10159C001360FFF7C1FB386108E0FFF7BDFB0246A3
:1015AC003B69D31A642B01D9032303E1754B1B68E8
:1015BC0003F48073002BF0D07B68DB68012B06D121
:1015CC006F4B1B6A6E4A43F0010313622DE07B687C
:1015DC00DB68002B0CD16A4B1B6A694A23F00103B0
:1015EC001362674B1B6A664A23F0040313621CE008
:1015FC007B68DB68052B0CD1614B1B6A604A43F09E
:10160C00040313625E4B1B6A5D4A43F001031362D1
:10161C000BE05B4B1B6A5A4A23F001031362584BD5
:10162C001B6A574A23F0040313627B68DB68002BA8
:10163C0015D0FFF771FB38610AE0FFF76DFB02462E
:10164C003B69D31A41F28832934201D90323B1E0AA
:10165C004B4B1B6A03F00203002BEED014E0FFF798
:10166C005BFB38610AE0FFF757FB02463B69D31A74
:10167C0041F28832934201D903239BE0404B1B6A11
:10168C0003F00203002BEED1FB7D012B05D13C4B6B
:10169C00DB693B4A23F08053D3617B68DB69002B09
:1016AC0000F08780364B5B6803F00C03082B61D08D
:1016BC007B68DB69022B46D1334B00221A60FFF7A3
:1016CC002BFB386108E0FFF727FB02463B69D31A76
:1016DC00022B01D903236DE0294B1B6803F0007327
:1016EC00002BF0D17B681B6AB3F5803F08D1244BEB
:1016FC005B6823F400327B689B68214913434B6081
:10170C001F4B5B6823F474127B68196A7B685B6AF5
:10171C000B431B4913434B601B4B01221A60FFF711
:10172C00FBFA386108E0FFF7F7FA02463B69D31A77
:10173C00022B01D903233DE0114B1B6803F000730E
:10174C00002BF0D035E0104B00221A60FFF7E4FAC2
:10175C00386108E0FFF7E0FA02463B69D31A022B26
:10176C0001D9032326E0064B1B6803F00073002B02
:10177C00F0D11EE07B68DB69012B07D1012319E056
:10178C000010024000700040600042420B4B5B684E
:10179C00FB60FB6803F480327B681B6A9A4206D1BB
:1017AC00FB6803F470127B685B6A9A4201D00123D8
:1017BC0000E0002318461837BD4680BD00100240DB
:1017CC0080B584B000AF786039607B68002B01D1A4
:1017DC000123D0E06A4B1B6803F007033A689A4276
:1017EC0010D9674B1B6823F0070265493B6813430C
:1017FC000B60634B1B6803F007033A689A4201D0F5
:10180C000123B8E07B681B6803F00203002B20D097
:10181C007B681B6803F00403002B05D0594B5B68F5
:10182C00584A43F4E06353607B681B6803F0080379
:10183C00002B05D0534B5B68524A43F46053536002
:10184C00504B5B6823F0F0027B689B684D49134357
:10185C004B607B681B6803F00103002B40D07B6856
:10186C005B68012B07D1474B1B6803F40033002B3B
:10187C0015D101237FE07B685B68022B07D1414BBC
:10188C001B6803F00073002B09D1012373E03D4B5F
:10189C001B6803F00203002B01D101236BE0394BD1
:1018AC005B6823F003027B685B68364913434B602B
:1018BC00FFF732FAF8600AE0FFF72EFA0246FB68EF
:1018CC00D31A41F28832934201D9032353E02D4BB2
:1018DC005B6803F00C027B685B689B009A42EBD15F
:1018EC00274B1B6803F007033A689A4210D2244B2B
:1018FC001B6823F0070222493B6813430B60204B03
:10190C001B6803F007033A689A4201D0012332E0C6
:10191C007B681B6803F00403002B08D0194B5B6831
:10192C0023F4E0627B68DB68164913434B607B68E9
:10193C001B6803F00803002B09D0124B5B6823F4DF
:10194C0060527B681B69DB000E4913434B6000F04F
:10195C0021F802460B4B5B681B0903F00F030A4985
:10196C00CB5C22FA03F3094A1360094B1B68184637
:10197C00FFF790F9002318461037BD4680BD00BF15
:10198C000020024000100240C0340008000000207B
:10199C000400002080B487B000AF0023FB6000235C
:1019AC00BB6000237B6100237B6000233B611E4BEB
:1019BC005B68FB60FB6803F00C03042B02D0082B64
:1019CC0003D027E0194B3B6127E0FB689B0C03F02D
:1019DC000F03174AD35C7B60FB6803F48033002B46
:1019EC0010D0114B5B685B0C03F00103114AD35C04
:1019FC00BB607B680D4A03FB02F2BB68B2FBF3F3DE
:101A0C007B6104E07B680C4A02FB03F37B617B691E
:101A1C003B6102E0054B3B6100BF3B6918461C373C
:101A2C00BD4680BC704700BF0010024000127A0017
:101A3C00D8340008E834000800093D0080B400AF39
:101A4C00024B1B681846BD4680BC70470000002046
:101A5C0080B500AFFFF7F2FF0246054B5B68DB0A6F
:101A6C0003F007030349CB5C22FA03F3184680BD4D
:101A7C0000100240D034000880B485B000AF78600C
:101A8C000A4B1B680A4AA2FB03235B0A7A6802FB17
:101A9C0003F3FB6000BFFB685A1EFA60002BF9D100
:101AAC0000BF00BF1437BD4680BC7047000000204B
:101ABC00D34D621080B586B000AF786000233B61D7
:101ACC000023FB607B681B6803F00103002B7DD0B7
:101ADC000023FB754F4BDB6903F08053002B0DD1BA
:101AEC004C4BDB694B4A43F08053D361494BDB6968
:101AFC0003F08053BB60BB680123FB75464B1B682E
:101B0C0003F48073002B18D1434B1B68424A43F4F7
:101B1C0080731360FFF700F9386108E0FFF7FCF8F9
:101B2C0002463B69D31A642B01D903236DE03A4B6F
:101B3C001B6803F48073002BF0D0364B1B6A03F444
:101B4C004073FB60FB68002B2ED07B685B6803F452
:101B5C004073FA689A4227D02E4B1B6A23F44073C9
:101B6C00FB602E4B01221A602C4B00221A60294A72
:101B7C00FB681362FB6803F00103002B14D0FFF722
:101B8C00CBF838610AE0FFF7C7F802463B69D31A75
:101B9C0041F28832934201D9032336E01D4B1B6A74
:101BAC0003F00203002BEED01A4B1B6A23F4407295
:101BBC007B685B68174913430B62FB7D012B05D1D6
:101BCC00144BDB69134A23F08053D3617B681B6889
:101BDC0003F00203002B08D00E4B5B6823F4404249
:101BEC007B689B680B4913434B607B681B6803F055
:101BFC001003002B08D0074B5B6823F480027B6832
:101C0C00DB68044913434B60002318461837BD4664
:101C1C0080BD00BF001002400070004040044242F2
:101C2C0080B588B000AF786000237B610023FB6136
:101C3C0000233B610023FB600023BB617B68102BFE
:101C4C000AD07B68102B00F28A807B68012B45D070
:101C5C007B68022B75D082E0464B5B68FB60454B82
:101C6C001B6803F08073002B7BD0FB689B0C03F08C
:101C7C000F03414AD35C3B61FB6803F48033002BB8
:101C8C0015D03C4B5B685B0C03F001033B4AD35C07
:101C9C007B61FB6803F48033002B0DD0384A7B69E1
:101CAC00B2FBF3F23B6902FB03F3FB6104E03B691B
:101CBC00344A02FB03F3FB612E4B5B6803F4800395
:101CCC00B3F5800F02D1FB69BB614AE0FB695B0095
:101CDC002D4AA2FB03235B08BB6142E0254B1B6A28
:101CEC00FB60FB6803F44073B3F5807F08D1FB689D
:101CFC0003F00203002B03D04FF40043BB611FE041
:101D0C00FB6803F44073B3F5007F09D1194B5B6A90
:101D1C0003F00203002B03D049F64043BB610FE0F4
:101D2C00FB6803F44073B3F5407F1CD1114B1B6867
:101D3C0003F40033002B16D04FF22443BB6112E0A6
:101D4C0011E0FFF785FE02460A4B5B689B0B03F024
:101D5C00030301335B00B2FBF3F3BB6104E000BF90
:101D6C0002E000BF00E000BFBB6918462037BD464B
:101D7C0080BD00BF00100240EC340008FC340008A9
:101D8C0000127A0000093D00ABAAAAAA80B584B063
:101D9C0000AF78600023FB607B68002B01D101232E
:101DAC007AE07B685B7CDBB2002B05D17B68002280
:101DBC001A747868FEF7A6FE7B6802225A7478685B
:101DCC0000F0FAFB0346002B04D07B6804225A7403
:101DDC00012361E0786800F0B3FC0346002B04D0CB
:101DEC007B6804225A74012356E07B681B685A688E
:101DFC007B681B6822F007025A607B689B68002B8B
:101E0C0005D0274B1B6B264A23F001031363244B8D
:101E1C00DB6A23F460727B689B6821491343CB62B5
:101E2C007B685B68B3F1FF3F03D07B685B68FB604A
:101E3C000EE00120FFF7F4FEF860FB68002B04D1E4
:101E4C007B6804225A74012326E0FB68013BFB608B
:101E5C00FB681A0C7B681B6802F00F029A607B68A7
:101E6C001B68FA6892B2DA60786800F091FC03465D
:101E7C00002B04D07B6804225A7401230CE07B688D
:101E8C000022DA737B6801225A737B6801229A73F1
:101E9C007B6801225A74002318461037BD4680BD5A
:101EAC00006C004090B587B000AFF860B9607A6004
:101EBC0000237B6100233B61FB68002B02D0BB68D5
:101ECC00002B01D1012380E0FB681B7C012B01D18D
:101EDC0002237AE0FB6801221A74FB6802225A740E
:101EEC007B68002B13D1BB681B781A464FF46163D7
:101EFC0003FB02F2BB685B7819460B461B015B1AAD
:101F0C009B001344BA68927813447B611EE0BB6853
:101F1C001B78184600F081FC03461A464FF46163A7
:101F2C0003FB02F4BB685B78184600F076FC0346B2
:101F3C001A4613461B019B1A9B001C44BB689B78DA
:101F4C00184600F06AFC034623447B617969F86803
:101F5C0000F08FFB0346002B07D0FB6804225A7459
:101F6C00FB6800221A7401232FE0FB681B685A6877
:101F7C00FB681B6822F005025A60F86800F0A0FBB1
:101F8C0038613B69B3F1FF3F18D03A697B699A42DB
:101F9C0014D23B6903F5A83303F5C0733B6139696F
:101FAC00F86800F0A6FB0346002B07D0FB68042260
:101FBC005A74FB6800221A74012306E0FB680122A4
:101FCC005A74FB6800221A74002318461C37BD464D
:101FDC0090BD000080B588B000AFF860B9607A6041
:101FEC000023BB610023FB6100237B6100233B6169
:101FFC00FB68002B02D0BB68002B01D10123B5E09C
:10200C00FB681B685B6803F00403002B01D0012301
:10201C00ACE0F86800F0FDFAB861BB69554AA2FB68
:10202C000323DB0A3B61BA69524BA3FB0213DB0AA5
:10203C004FF4616101FB03F3D31A4F4AA2FB032354
:10204C005B09DAB2BB685A70BB694A4AA2FB03123D
:10205C00D20A4FF4616101FB02F29A1A464BA3FBC0
:10206C00021359090B461B015B1A9B00D11ACAB209
:10207C00BB689A703B69172B55D93B693F4AA2FB49
:10208C0003231B097B6139693C4BA3FB01231A0910
:10209C0013465B001344DB00CA1AD2B2BB681A7039
:1020AC00F86800F00DFBF861FB69B3F1FF3F08D055
:1020BC00FA69BB699A4204D9FA69BB69D31AFB6104
:1020CC0002E04FF0FF33FB617B692D4A02FB03F307
:1020DC00BA69D31ABB61B969F86800F0CAFA034649
:1020EC00002B01D0012341E0FB69B3F1FF3F0CD081
:1020FC00FA69BB691344FB61F969F86800F0F9FAF5
:10210C000346002B0AD0012330E0F969F86800F08F
:10211C00F0FA0346002B01D0012327E07969F86817
:10212C0000F098FB03E03B69DAB2BB681A707B687D
:10213C00002B1AD0BB681B78184600F051FB0346E5
:10214C001A46BB681A70BB685B78184600F048FBEF
:10215C0003461A46BB685A70BB689B78184600F059
:10216C003FFB03461A46BB689A700023184620377B
:10217C00BD4680BDC5B3A29189888888ABAAAAAA9E
:10218C008051010080B588B000AFF860B9607A600A
:10219C000023FB610023BB6100237B61FB68002BE8
:1021AC0002D0BB68002B01D1012397E0FB681B7C9C
:1021BC00012B01D1022391E0FB6801221A74FB6808
:1021CC0002225A747B68002B0CD1BB68DA78FB684E
:1021DC00DA73BB685A78FB685A73BB689A78FB68E9
:1021EC009A731AE0BB68DB78184600F016FB0346BE
:1021FC001A46FB68DA73BB685B78184600F00DFB77
:10220C0003461A46FB685A73BB689B78184600F065
:10221C0004FB03461A46FB689A73FB68DB7B184683
:10222C00FB68597BFB689B7B1A4600F0EFFB03466F
:10223C001A46FB681A73FB681A7BBB681A70F8683D
:10224C0000F0E7F9F861FB69264AA2FB0323DB0ADD
:10225C007B617B69182B3AD97B69234AA2FB032348
:10226C001B09224A02FB03F3FA69D31AFB61F969D1
:10227C00F86800F0FEF90346002B07D0FB68042237
:10228C005A74FB6800221A74012327E0F86800F0E6
:10229C0017FAB861BB69B3F1FF3F18D0BA69FB6993
:1022AC009A4214D2BB6903F5A83303F5C073BB6122
:1022BC00B969F86800F01DFA0346002B07D0FB68DB
:1022CC0004225A74FB6800221A74012306E0FB688E
:1022DC0001225A74FB6800221A7400231846203716
:1022EC00BD4680BDC5B3A291ABAAAAAA805101007C
:1022FC0080B586B000AFF860B9607A6007F114035E
:10230C0000210A461A800A469A70FB68002B02D0FC
:10231C00BB68002B01D101233AE007F11403002222
:10232C001946F868FFF756FE0346002B01D001232F
:10233C002EE0FB681A7BBB681A70FB68DA7BBB6803
:10234C00DA70FB685A7BBB685A70FB689A7BBB6877
:10235C009A707B68002B1AD0BB68DB78184600F0AB
:10236C003FFA03461A46BB68DA70BB685B781846BE
:10237C0000F036FA03461A46BB685A70BB689B7865
:10238C00184600F02DFA03461A46BB689A700023D3
:10239C0018461837BD4680BD90B589B000AFF860BF
:1023AC00B9607A600023FB6107F1140300210A462F
:1023BC001A800A469A70FB68002B02D0BB68002B6F
:1023CC0001D101237DE0FB681B7C012B01D1022391
:1023DC0077E0FB6801221A74FB6802225A7407F139
:1023EC00140300221946F868FFF7F4FD0346002B8E
:1023FC0001D0012365E03B7D1A464FF4616303FB7A
:10240C0002F27B7D19460B461B015B1A9B001344A1
:10241C00BA7D1344BB617B68002B13D1BB681B785E
:10242C001A464FF4616303FB02F2BB685B781946F2
:10243C000B461B015B1A9B001344BA689278134439
:10244C00FB611EE0BB681B78184600F0E6F90346FA
:10245C001A464FF4616303FB02F4BB685B781846C1
:10246C0000F0DBF903461A4613461B019B1A9B002E
:10247C001C44BB689B78184600F0CFF903462344F4
:10248C00FB61FA69BB699A4205D2FB6903F5A83373
:10249C0003F5C073FB61F969F86800F02AF903468B
:1024AC00002B07D0FB6804225A74FB6800221A74B4
:1024BC00012306E0FB6801225A74FB6800221A749F
:1024CC00002318462437BD4690BD000080B586B069
:1024DC0000AFF860B9607A603B6000237B61FB68F9
:1024EC00002B02D0BB68002B01D101235AE0F86805
:1024FC0000F0E6F878617B692C4AA2FB0323D90A29
:10250C002B4BA3FB01231A0913465B001344DB007E
:10251C00CA1AD2B2BB681A707A69244BA3FB021395
:10252C00DB0A4FF4616101FB03F3D31A214AA2FBCE
:10253C0003235B09DAB2BB685A707B691B4AA2FBA6
:10254C000312D20A4FF4616101FB02F29A1A194B81
:10255C00A3FB021359090B461B015B1A9B00D11AF2
:10256C00CAB2BB689A703B68002B1AD0BB681B7848
:10257C00184600F035F903461A46BB681A70BB685A
:10258C005B78184600F02CF903461A46BB685A7063
:10259C00BB689B78184600F023F903461A46BB68C3
:1025AC009A70002318461837BD4680BDC5B3A2915A
:1025BC00ABAAAAAA8988888880B584B000AF786055
:1025CC000023FB607B68002B01D101231DE07B689D
:1025DC001B685A687B681B6822F008025A60FEF779
:1025EC009BFBF86009E0FEF797FB0246FB68D31AE9
:1025FC00B3F57A7F01D9032307E07B681B685B681E
:10260C0003F00803002BEED0002318461037BD460C
:10261C0080BD80B487B000AF786000237B8200233C
:10262C003B820023FB8100237B617B681B689B69D9
:10263C007B827B681B68DB69FB817B681B689B6901
:10264C003B827A8A3B8A9A4208D03B8A1A047B687E
:10265C001B68DB699BB213437B6104E07B8A1A0421
:10266C00FB8913437B617B6918461C37BD4680BCD4
:10267C00704780B584B000AF786039600023FB737D
:10268C00786800F05DF80346002B02D00123FB7341
:10269C0011E07B681B683A68120C9A617B681B68B6
:1026AC003A6892B2DA61786800F072F80346002B4F
:1026BC0001D00123FB73FB7B18461037BD4680BD50
:1026CC0080B485B000AF78600023FB810023BB8110
:1026DC007B681B681B6AFB817B681B685B6ABB8120
:1026EC00FB891A04BB89134318461437BD4680BCBA
:1026FC00704780B584B000AF786039600023FB73FD
:10270C00786800F01DF80346002B02D00123FB7300
:10271C0011E07B681B683A68120C1A627B681B68B4
:10272C003A6892B25A62786800F032F80346002B8D
:10273C0001D00123FB73FB7B18461037BD4680BDCF
:10274C0080B584B000AF78600023FB60FEF7E4FA3C
:10275C00F86009E0FEF7E0FA0246FB68D31AB3F51D
:10276C007A7F01D903230FE07B681B685B6803F059
:10277C002003002BEED07B681B685A687B681B68B3
:10278C0042F010025A60002318461037BD4680BD37
:10279C0080B584B000AF78600023FB607B681B6859
:1027AC005A687B681B6822F010025A60FEF7B4FA74
:1027BC00F86009E0FEF7B0FA0246FB68D31AB3F5ED
:1027CC007A7F01D9032307E07B681B685B6803F001
:1027DC002003002BEED0002318461037BD4680BDD9
:1027EC0080B485B000AF0346FB710023FB6005E0AD
:1027FC00FB680133FB60FB790A3BFB71FB79092B0E
:10280C00F6D8FB68DBB21B01DAB2FB791343DBB2FF
:10281C0018461437BD4680BC704780B485B000AFF5
:10282C000346FB710023FB60FB791B09DBB21A46E4
:10283C0013469B0013445B00FB60FB7903F00F0312
:10284C00DAB2FB68DBB21344DBB218461437BD4670
:10285C0080BC704780B586B000AF786039600023CB
:10286C007B6100233B610023FB600023BB607B6822
:10287C00DB7B7B617B685B7B3B617B689B7BFB6071
:10288C000023BB606FE03B69012B11D03B69032B2C
:10289C000ED03B69052B0BD03B69072B08D03B694D
:1028AC00082B05D03B690A2B02D03B690C2B17D1A6
:1028BC00FB681E2B03D8FB680133FB6050E03B69BF
:1028CC000C2B05D03B6901333B610123FB6047E0D6
:1028DC0001233B610123FB607B6901337B613FE09A
:1028EC003B69042B08D03B69062B05D03B69092BAF
:1028FC0002D03B690B2B0CD1FB681D2B03D8FB685A
:10290C000133FB602CE03B6901333B610123FB602D
:10291C0026E03B69022B23D1FB681B2B03D8FB68F9
:10292C000133FB601CE0FB681C2B11D17B699BB253
:10293C00184600F039F80346002B03D0FB6801332E
:10294C00FB600DE03B6901333B610123FB6007E059
:10295C00FB681D2B04D13B6901333B610123FB60F8
:10296C00BB680133BB60BA683B689A428BD37B6906
:10297C00DAB27B68DA733B69DAB27B685A73FB684C
:10298C00DAB27B689A733B69DBB2FA68D2B2194649
:10299C00786900F03BF803461A467B681A7300BF4F
:1029AC001837BD4680BD000080B483B000AF03462D
:1029BC00FB80FB8803F003039BB2002B01D00023A8
:1029CC001DE0FB88104AA2FB03125209642101FB93
:1029DC0002F29B1A9BB2002B01D001230FE0FB8863
:1029EC00094AA2FB0312D2094FF4C87101FB02F28F
:1029FC009B1A9BB2002B01D1012300E00023184647
:102A0C000C37BD4680BC70471F85EB5180B485B038
:102A1C0000AF78600B46FB701346BB700023BB60A5
:102A2C000023FB607B6803F5FA63BB60FB78022B29
:102A3C002DD8FA7813465B001344DB009B1A2C4A02
:102A4C00A2FB03235A08BB781A44BB681A44BB6820
:102A5C00013B9B081A44BB68013B2649A1FB0313AD
:102A6C005B09D21ABB68013B2249A1FB0313DB09AA
:102A7C0013441A1D204BA3FB0213D11A49080B4413
:102A8C0099080B46DB005B1AD31AFB6029E0FA7835
:102A9C0013465B001344DB009B1A154AA2FB03236D
:102AAC005A08BB781A44BB681A44BB689B081A4482
:102ABC00BB681049A1FB03135B09D21ABB680D4913
:102ACC00A1FB0313DB0913449A1C0B4BA3FB02134E
:102ADC00D11A49080B4499080B46DB005B1AD31A30
:102AEC00FB60FB68DBB218461437BD4680BC7047F0
:102AFC00398EE3381F85EB51254992240EB46FF0C3
:102B0C00004100B59CB01DAB02900690079104915A
:102B1C000848094953F8042B0591006802A9019350
:102B2C0000F09CF80022029B1A701CB05DF804EBBC
:102B3C0003B070470C0000200802FFFF034602445C
:102B4C00934200D1704703F8011BF9E7014B186859
:102B5C00704700BF0C00002070B500260C4D0D4CCA
:102B6C00641BA410A64209D100F078FC00260A4D83
:102B7C000A4C641BA410A64205D170BD55F8043B49
:102B8C0098470136EEE755F8043B98470136F2E7D3
:102B9C003435000834350008343500083835000861
:102BAC00704770472DE9F0471F468E688246BE423B
:102BBC000C4690460B682DD8B1F90C2012F4906F8E
:102BCC0026D06569096905EB4505A3EB010905EB01
:102BDC00D5757B1C4B446D109D4238BF1D4653056B
:102BEC0027D5294600F058F9064660B34A462169B4
:102BFC0000F0D6FBA38923F4906343F08003A381F8
:102C0C0026614E4426603E466561A5EB0905A5602C
:102C1C00BE4200D93E4632464146206800F088FB51
:102C2C000020A3689B1BA360236833442360BDE88A
:102C3C00F0872A4600F04EFB06460028E0D15046AD
:102C4C00216900F0BBFB0C23CAF80030A3894FF0BC
:102C5C00FF3043F04003A381E9E700002DE9F04F7A
:102C6C0098468B8907461B060D4614469DB010D519
:102C7C000B6973B9402100F00FF92860286130B955
:102C8C000C233B604FF0FF301DB0BDE8F08F4023AC
:102C9C006B610023099320238DF8293030234FF0EA
:102CAC000109CDF80C80DFF898818DF82A30234685
:102CBC009A4613F8012B0AB1252AF9D1BAEB040B69
:102CCC000BD05B46224629463846FFF76BFF013096
:102CDC0000F0A780099A5A4409929AF80030002B08
:102CEC0000F09F8000234FF0FF32CDE905230AF15D
:102CFC00010A049307938DF853301A935446052216
:102D0C0014F8011B4E4800F03DFB049AD8B9D006CC
:102D1C0044BF20238DF85330110744BF2B238DF86B
:102D2C0053309AF800302A2B15D0544600204FF01F
:102D3C000A0C079A214611F8013B303B092B4BD961
:102D4C00B0B1079214E0A0EB080309FA03F31343A4
:102D5C00A2460493D2E7039B191D1B680391002B19
:102D6C00BBBF5B4242F0020207930793B8BF0492C9
:102D7C0023782E2B0AD163782A2B32D1039B023471
:102D8C001A1D1B68039243EAE3730593DFF8B4A0A2
:102D9C0003225046217800F0F5FA38B14022049B0A
:102DAC00A0EB0A00824013430134049314F8011B76
:102DBC00062225488DF8281000F0E4FA002836D0B9
:102DCC00224B1BBB039B073323F0070308330393EE
:102DDC00099B334409936AE70C4601200CFB023231
:102DEC00A8E700234FF00A0C19460134059320463E
:102DFC0010F8012B303A092A03D9002BC6D00591C3
:102E0C00C4E7044601230CFB0121F0E703AB00935C
:102E1C002A4638460E4B04A9AFF30080421C0646E6
:102E2C00D6D1AB895B063FF52DAF09982CE703ABE8
:102E3C0000932A463846064B04A900F01FF9EDE72B
:102E4C00FE340008043500080835000800000000B6
:102E5C00B12B000870B50F4E0C463168054611B900
:102E6C0000F080FA30602146284600F07BFA431CC3
:102E7C0003D14FF0FF34204670BDC41C24F0030472
:102E8C00A042F8D0211A284600F06CFA0130F2D199
:102E9C00EFE700BF300200202DE9F843CD1C25F0F0
:102EAC00030508350C2D38BF0C25002D064601DB1B
:102EBC00A94204D90C2333600020BDE8F883DFF865
:102ECC00D48000F0FBF9D8F800301C4644BB2946EE
:102EDC003046FFF7BFFF431C044658D1D8F80040DA
:102EEC002746002F43D1002C4BD02368394630465F
:102EFC0004EB030900F036FA814542D121683046D3
:102F0C006D1A2946FFF7A6FF01303AD023682B44EF
:102F1C002360D8F800305A6862BBC8F800700FE024
:102F2C002268521B20D40B2A17D96119A3422560A1
:102F3C0018BF5960636808BFC8F8001062514B6035
:102F4C00304600F0C1F904F10B00231D20F00700FE
:102F5C00C21A1CBF1B1AA350AFE76268A3420CBF76
:102F6C00C8F800205A60EBE723466468AEE73C469D
:102F7C007F68B6E71A465B68A342FBD10023536017
:102F8C00DEE70C233046336000F09EF994E70560D1
:102F9C00D6E700BF340200202DE9F04716469846CC
:102FAC008A680B6907469342B8BF1346336091F8A1
:102FBC0043200C46DDF820900AB1013333602368BE
:102FCC00990642BF336802333360256815F0060555
:102FDC0006D104F1190AE36832689B1AAB422BDC68
:102FEC0094F843302268003B18BF0123920630D47A
:102FFC004146384604F14302C847013023D02368C8
:10300C00226903F00603042B14BF002533684FF02C
:10301C00000608BFE56804F11A0408BFED1A54F85D
:10302C00123C08BF25EAE5759342C4BF9B1AED1804
:10303C00B5421AD1002008E00123524641463846D9
:10304C00C847013003D14FF0FF30BDE8F0870135A0
:10305C00C1E73020E11881F843005A1C94F8451060
:10306C002244023382F84310C2E701232246414630
:10307C003846C8470130E6D00136D9E72DE9FF477D
:10308C000F7E9146782F80460C469A460C9E01F195
:10309C00430207D8622F0AD8002F00F0D380582F94
:1030AC0000F0BA8004F1420684F842703AE0A7F1CD
:1030BC006303152BF6D801A151F823F02131000838
:1030CC0035310008B1300008B1300008B1300008CB
:1030DC00B130000835310008B1300008B1300008BB
:1030EC00B1300008B1300008373200085F310008F9
:1030FC00F1310008B1300008B13000085932000835
:10310C00B13000085F310008B1300008B130000860
:10311C00F931000833681A1D1B68326004F142064D
:10312C0084F8423001239EE033682068191D316019
:10313C00060601D51D6803E04506FBD5B3F9005022
:10314C00002D03DA2D236D4284F843300A235948AD
:10315C0011E021683368080653F8045B02D4490671
:10316C0048BFADB26F2F336014BF0A2308235148F8
:10317C00002184F843106668002EA8BF2168A66061
:10318C00A4BF21F0040121600DB9002E4BD01646CE
:10319C00B5FBF3F103FB1157C75D06F8017D2F4614
:1031AC00BB420D46F4D9082B0BD12368DF0708D599
:1031BC00236961689942DEBF302306F8013C06F1B1
:1031CC00FF36921B22614B4621464046CDF800A0AB
:1031DC0003AAFFF7E1FE01304AD14FF0FF3004B0F3
:1031EC00BDE8F087236843F020032360782732483A
:1031FC0084F84570236831681F0651F8045B02D4CB
:10320C005F0648BFADB23160D90744BF43F020031D
:10321C0023601DB11023ABE72648E9E7236823F0B0
:10322C0020032360F6E71646BDE733682568181DB2
:10323C00616930602E061B6801D5196002E06806D2
:10324C00FBD51980002316462361BCE733680021A7
:10325C001A1D32601E686268304600F093F808B19F
:10326C00801B606063682361002384F84330AAE705
:10327C003246494640462369D0470130ADD02368D9
:10328C009B0713D4E068039B9842B8BF1846A6E787
:10329C000123324649464046D04701309DD0013586
:1032AC00E36803995B1AAB42F2DCEBE7002504F10F
:1032BC001906F5E70F350008203500080148FFF71F
:1032CC006FBC00BF2C0200200148FFF76ABC00BF96
:1032DC002C0200202DE9F041804615460C4621B900
:1032EC001146BDE8F041FFF7D7BD2AB900F066F8EA
:1032FC0000242046BDE8F08100F0A8F8854206467F
:10330C0002D8B5EB500FF4D829464046FFF7C4FD60
:10331C0007460028ECD0B5422A46214628BF324643
:10332C0000F03EF82146404600F048F83C46E0E705
:10333C00884210B501EB020402D98442234607D817
:10334C00431EA14208D011F8012B03F8012FF8E716
:10335C00014602448A4200D110BD13F8014D02F817
:10336C00014DF7E738B50023054D044608462B60A0
:10337C00FDF718FC431C02D12B6803B1236038BD48
:10338C0038020020034610B5C9B2024493421846D5
:10339C0001D1002003E0047801338C42F6D110BD3A
:1033AC000A44914200F1FF3300D1704710B511F877
:1033BC00014B914203F8014FF9D110BD38B50546C8
:1033CC00002940D051F8043C0C1F002BB8BFE41866
:1033DC00FFF774FF1C4A136833B963601460284606
:1033EC00BDE83840FFF770BFA34208D92068211808
:1033FC008B4201BF19685B6809182160EDE71A461A
:10340C005B680BB1A342FAD911685018A0420BD1DA
:10341C0020680144501883421160E0D118685B6841
:10342C00084410605360DAE702D90C232B60D6E70E
:10343C00206821188B4201BF19685B68091821604C
:10344C0063605460CBE738BD3402002051F8043C73
:10345C00181F002BBCBF0B58C0187047F8B500BF25
:10346C00F8BC08BC9E467047F8B500BFF8BC08BC59
:04347C009E467047B1
:10348000253032643A253032643A25303264000007
:10349000504D0000253032643A253032643A2530F0
:1034A0003264202573000000414D000053573A2537
:1034B0003032643A253032643A25303264000000FC
:1034C00000000000000000000102030406070809D4
:1034D00000000000010203040203040506070809B6
:1034E0000A0B0C0D0E0F1010010200000203040560
:1034F000060708090A0B0C0D0E0F10100102232DF0
:10350000302B2000686C4C006566674546470030EC
:103510003132333435363738394142434445460039
:103520003031323334353637383961626364656639
:043530000000000097
:043534003101000859
:043538000D01000879
:10353C0000127A00100000000100000010000020B2
:10354C0000000000F40000205C010020C4010020F9
:10355C00000000000000000000000000000000005F
:10356C00000000000000000000000000000000004F
:10357C00000000000000000000000000000000003F
:0C358C0000000000000000000000000033
:0400000508000C29BA
:00000001FF
